:020000040000FA
:1000000008020020D5000000EF000000E101000020
:1000100000000000000000000000000000000000E0
:10002000000000000000000000000000F3000000DD
:100030000000000000000000F50000008F0200003A
:100040003902000041020000490200005102000094
:10005000B101000075040000DD040000E5040000AB
:100060001102000019020000610200006902000094
:10007000F1010000F90100005D04000065040000CA
:100080006D040000090200007D04000085040000EA
:100090008D04000029020000FD0400005902000048
:1000A0006701000031020000ED040000F5040000CB
:1000B0002102000001020000B9010000A9010000B6
:1000C0000348854600F036F8004800475901000013
:1000D0000802002009480A4A002100A1814200D9F3
:1000E0000244084802600848804708480047FEE785
:1000F000FEE7FEE7FEE7FEE7FEE700000000002067
:100100000000000008ED00E01D040000C100000038
:1001100003460B439B0703D009E008C9121F08C020
:10012000042AFAD203E00B780370401C491C521ECB
:10013000F9D27047064C0125064E05E0E36807CC6E
:100140002B430C3C98471034B442F7D3FFF7BCFF65
:10015000780500009805000010B500F05FF900F088
:10016000FCF9002010BD10B5C046C04610BD00000F
:1001700030B5024600201402034D631901248C405F
:10018000E4435C6130BD0000000C004070B50246E5
:1001900000201502034EAB191C692546CD40E80727
:1001A000C00F70BD000C004010B5C046C04610BD69
:1001B00010B5C046C04610BD10B5C046C046C046CA
:1001C000C04610BD70B504460D461646034960187A
:1001D0003246294600F04CF8002070BD080D024060
:1001E00008B50020009000BF00980028FCD008BD92
:1001F00010B5C046C04610BD10B5C046C04610BDC3
:1002000010B5C046C04610BD10B5C046C04610BDB2
:1002100010B5C046C04610BD10B5C046C04610BDA2
:1002200010B5C046C04610BD10B5C046C04610BD92
:1002300010B5C046C04610BD10B5C046C04610BD82
:1002400010B5C046C04610BD10B5C046C04610BD72
:1002500010B5C046C04610BD10B5C046C04610BD62
:1002600010B5C046C04610BD10B5C046C04610BD52
:1002700010B5012A05D1036801248C402343036093
:1002800004E0036801248C40A343036010BD10B553
:10029000C046C04610BD000030B589B0002414220D
:1002A000564904A8FFF734FF5448143000680390FF
:1002B0000020009001900290514801886846018119
:1002C0004F4841886846C1804D4881886846818092
:1002D0004B48C188684641804948203001886846BB
:1002E0000180484800680006450F2B0000F018F90F
:1002F00005042E303E4178004248C0684005400D5C
:1003000069460989884201D1089C1EE03D48C068C1
:100310004005400D6946C988884201D1079C14E018
:100320003848C0684005400D69468988884201D137
:10033000069C0AE03348C0684005400D694649887C
:10034000884201D1059C00E0049C4BE02E4C49E022
:10035000684600882B4949698905890D884202D180
:100360006846C48901E0684684893BE00124E403CF
:1003700038E02448C06B8007800F032829D16846E5
:1003800000892049C9684905490D884201D1089C66
:1003900020E06846C0881B49C9684905490D884264
:1003A00001D1079C16E0684680881649C96849054E
:1003B000490D884201D1069C0CE0684640881149ED
:1003C000C9684905490D884201D1059C02E0049C99
:1003D00000E00D4C0B48C06BC005000F444301E02A
:1003E000002400BF00BF074800684005410F2046B9
:1003F000C8400446204609B030BD0000600500003A
:10040000000C1000002000400048E80110B5FFF784
:1004100043FF0149086010BD0000002010B50D49E0
:1004200049888805800D0C494969890A8902014378
:10043000094A51610749203909894805400D11468B
:10044000C968C90AC9020143D160FFF7DFFF00F0A4
:1004500059F810BD200C10000020004010B500F02D
:1004600019F810BD10B5C046C04610BD10B5C04645
:10047000C04610BD10B5C046C04610BD10B5C04640
:10048000C04610BD10B5C046C04610BD10B5C04630
:10049000C04610BD10B500210846FFF777FE0128C1
:1004A00018D10D480078002808D101220521C0206C
:1004B000FFF788FE01200849087007E000220521A7
:1004C000C020FFF77FFE0020034908700021084686
:1004D000FFF74EFE10BD00000400002010B5C0461E
:1004E000C04610BD10B5C046C04610BD10B5C046D0
:1004F000C04610BD10B5C046C04610BD10B5C046C0
:10050000C04610BD0549086A096A012212079143D5
:100510008918024A116211460862704700200040A3
:1005200030B47446641E2578641CAB4204D3635D0A
:100530005B00E31830BC18471D46F8E702E008C826
:10054000121F08C1002AFAD170477047002001E04D
:1005500001C1121F002AFBD1704700BFFEE7000057
:1005600000093D0000127A000024F4004086510189
:1005700000366E0100800096980500000000002003
:10058000080000003C050000A00500000800002055
:10059000000200004C05000000093D0000000000C2
:04000005000000C136
:00000001FF
